{
  "_format": "hh-sol-artifact-1",
  "contractName": "UUPSUpgradeableMockV1",
  "sourceName": "contracts/mocks/UUPS/TestInProd.sol",
  "abi": [
    {
      "anonymous": false,
      "inputs": [
        {
          "indexed": false,
          "internalType": "address",
          "name": "previousAdmin",
          "type": "address"
        },
        {
          "indexed": false,
          "internalType": "address",
          "name": "newAdmin",
          "type": "address"
        }
      ],
      "name": "AdminChanged",
      "type": "event"
    },
    {
      "anonymous": false,
      "inputs": [
        {
          "indexed": true,
          "internalType": "address",
          "name": "beacon",
          "type": "address"
        }
      ],
      "name": "BeaconUpgraded",
      "type": "event"
    },
    {
      "anonymous": false,
      "inputs": [
        {
          "indexed": true,
          "internalType": "address",
          "name": "implementation",
          "type": "address"
        }
      ],
      "name": "Upgraded",
      "type": "event"
    },
    {
      "inputs": [],
      "name": "current",
      "outputs": [
        {
          "internalType": "uint256",
          "name": "",
          "type": "uint256"
        }
      ],
      "stateMutability": "view",
      "type": "function"
    },
    {
      "inputs": [],
      "name": "decrement",
      "outputs": [],
      "stateMutability": "nonpayable",
      "type": "function"
    },
    {
      "inputs": [],
      "name": "increment",
      "outputs": [],
      "stateMutability": "nonpayable",
      "type": "function"
    },
    {
      "inputs": [],
      "name": "reset",
      "outputs": [],
      "stateMutability": "nonpayable",
      "type": "function"
    },
    {
      "inputs": [
        {
          "internalType": "address",
          "name": "newImplementation",
          "type": "address"
        }
      ],
      "name": "upgradeTo",
      "outputs": [],
      "stateMutability": "nonpayable",
      "type": "function"
    },
    {
      "inputs": [
        {
          "internalType": "address",
          "name": "newImplementation",
          "type": "address"
        },
        {
          "internalType": "bytes",
          "name": "data",
          "type": "bytes"
        }
      ],
      "name": "upgradeToAndCall",
      "outputs": [],
      "stateMutability": "payable",
      "type": "function"
    }
  ],
  "bytecode": "0x60a06040523073ffffffffffffffffffffffffffffffffffffffff1660809073ffffffffffffffffffffffffffffffffffffffff1660601b81525034801561004657600080fd5b5060805160601c61109a61007a6000396000818161011d015281816101ac015281816102cc015261035b015261109a6000f3fe6080604052600436106100555760003560e01c80632baeceb71461005a5780633659cfe6146100715780634f1ef2861461009a5780639fa6a6e3146100b6578063d09de08a146100e1578063d826f88f146100f8575b600080fd5b34801561006657600080fd5b5061006f61010f565b005b34801561007d57600080fd5b50610098600480360381019061009391906109f5565b61011b565b005b6100b460048036038101906100af9190610a1e565b6102ca565b005b3480156100c257600080fd5b506100cb610407565b6040516100d89190610ce0565b60405180910390f35b3480156100ed57600080fd5b506100f6610418565b005b34801561010457600080fd5b5061010d610424565b005b6101196000610430565b565b7f000000000000000000000000000000000000000000000000000000000000000073ffffffffffffffffffffffffffffffffffffffff163073ffffffffffffffffffffffffffffffffffffffff1614156101aa576040517f08c379a00000000000000000000000000000000000000000000000000000000081526004016101a190610c60565b60405180910390fd5b7f000000000000000000000000000000000000000000000000000000000000000073ffffffffffffffffffffffffffffffffffffffff166101e961048c565b73ffffffffffffffffffffffffffffffffffffffff161461023f576040517f08c379a000000000000000000000000000000000000000000000000000000000815260040161023690610c80565b60405180910390fd5b610248816104e3565b6102c781600067ffffffffffffffff81111561028d577f4e487b7100000000000000000000000000000000000000000000000000000000600052604160045260246000fd5b6040519080825280601f01601f1916602001820160405280156102bf5781602001600182028036833780820191505090505b5060006104e6565b50565b7f000000000000000000000000000000000000000000000000000000000000000073ffffffffffffffffffffffffffffffffffffffff163073ffffffffffffffffffffffffffffffffffffffff161415610359576040517f08c379a000000000000000000000000000000000000000000000000000000000815260040161035090610c60565b60405180910390fd5b7f000000000000000000000000000000000000000000000000000000000000000073ffffffffffffffffffffffffffffffffffffffff1661039861048c565b73ffffffffffffffffffffffffffffffffffffffff16146103ee576040517f08c379a00000000000000000000000000000000000000000000000000000000081526004016103e590610c80565b60405180910390fd5b6103f7826104e3565b610403828260016104e6565b5050565b600061041360006106b7565b905090565b61042260006106c5565b565b61042e60006106db565b565b6000816000015490506000811161047c576040517f08c379a000000000000000000000000000000000000000000000000000000000815260040161047390610c20565b60405180910390fd5b6001810382600001819055505050565b60006104ba7f360894a13ba1a3210667c828492db98dca3e2076cc3735a920a3ca505d382bbc60001b6106e8565b60000160009054906101000a900473ffffffffffffffffffffffffffffffffffffffff16905090565b50565b60006104f061048c565b90506104fb846106f2565b6000835111806105085750815b156105195761051784846107ab565b505b60006105477f4910fdfa16fed3260ed0e7147f7cc6da11a60208b5b9406d12a635614ffd914360001b6107d8565b90508060000160009054906101000a900460ff166106b05760018160000160006101000a81548160ff02191690831515021790555061061385836040516024016105919190610be3565b6040516020818303038152906040527f3659cfe6000000000000000000000000000000000000000000000000000000007bffffffffffffffffffffffffffffffffffffffffffffffffffffffff19166020820180517bffffffffffffffffffffffffffffffffffffffffffffffffffffffff83818316178352505050506107ab565b5060008160000160006101000a81548160ff02191690831515021790555061063961048c565b73ffffffffffffffffffffffffffffffffffffffff168273ffffffffffffffffffffffffffffffffffffffff16146106a6576040517f08c379a000000000000000000000000000000000000000000000000000000000815260040161069d90610c40565b60405180910390fd5b6106af856107e2565b5b5050505050565b600081600001549050919050565b6001816000016000828254019250508190555050565b6000816000018190555050565b6000819050919050565b6106fb81610831565b61073a576040517f08c379a000000000000000000000000000000000000000000000000000000000815260040161073190610ca0565b60405180910390fd5b806107677f360894a13ba1a3210667c828492db98dca3e2076cc3735a920a3ca505d382bbc60001b6106e8565b60000160006101000a81548173ffffffffffffffffffffffffffffffffffffffff021916908373ffffffffffffffffffffffffffffffffffffffff16021790555050565b60606107d0838360405180606001604052806027815260200161103e60279139610844565b905092915050565b6000819050919050565b6107eb816106f2565b8073ffffffffffffffffffffffffffffffffffffffff167fbc7cd75a20ee27fd9adebab32041f755214dbc6bffa90cc0225b39da2e5c2d3b60405160405180910390a250565b600080823b905060008111915050919050565b606061084f84610831565b61088e576040517f08c379a000000000000000000000000000000000000000000000000000000000815260040161088590610cc0565b60405180910390fd5b6000808573ffffffffffffffffffffffffffffffffffffffff16856040516108b69190610bcc565b600060405180830381855af49150503d80600081146108f1576040519150601f19603f3d011682016040523d82523d6000602084013e6108f6565b606091505b5091509150610906828286610911565b925050509392505050565b6060831561092157829050610971565b6000835111156109345782518084602001fd5b816040517f08c379a00000000000000000000000000000000000000000000000000000000081526004016109689190610bfe565b60405180910390fd5b9392505050565b600061098b61098684610d20565b610cfb565b9050828152602081018484840111156109a357600080fd5b6109ae848285610dbf565b509392505050565b6000813590506109c581611026565b92915050565b600082601f8301126109dc57600080fd5b81356109ec848260208601610978565b91505092915050565b600060208284031215610a0757600080fd5b6000610a15848285016109b6565b91505092915050565b60008060408385031215610a3157600080fd5b6000610a3f858286016109b6565b925050602083013567ffffffffffffffff811115610a5c57600080fd5b610a68858286016109cb565b9150509250929050565b610a7b81610d83565b82525050565b6000610a8c82610d51565b610a968185610d67565b9350610aa6818560208601610dce565b80840191505092915050565b6000610abd82610d5c565b610ac78185610d72565b9350610ad7818560208601610dce565b610ae081610e61565b840191505092915050565b6000610af8601b83610d72565b9150610b0382610e72565b602082019050919050565b6000610b1b602f83610d72565b9150610b2682610e9b565b604082019050919050565b6000610b3e602c83610d72565b9150610b4982610eea565b604082019050919050565b6000610b61602c83610d72565b9150610b6c82610f39565b604082019050919050565b6000610b84602d83610d72565b9150610b8f82610f88565b604082019050919050565b6000610ba7602683610d72565b9150610bb282610fd7565b604082019050919050565b610bc681610db5565b82525050565b6000610bd88284610a81565b915081905092915050565b6000602082019050610bf86000830184610a72565b92915050565b60006020820190508181036000830152610c188184610ab2565b905092915050565b60006020820190508181036000830152610c3981610aeb565b9050919050565b60006020820190508181036000830152610c5981610b0e565b9050919050565b60006020820190508181036000830152610c7981610b31565b9050919050565b60006020820190508181036000830152610c9981610b54565b9050919050565b60006020820190508181036000830152610cb981610b77565b9050919050565b60006020820190508181036000830152610cd981610b9a565b9050919050565b6000602082019050610cf56000830184610bbd565b92915050565b6000610d05610d16565b9050610d118282610e01565b919050565b6000604051905090565b600067ffffffffffffffff821115610d3b57610d3a610e32565b5b610d4482610e61565b9050602081019050919050565b600081519050919050565b600081519050919050565b600081905092915050565b600082825260208201905092915050565b6000610d8e82610d95565b9050919050565b600073ffffffffffffffffffffffffffffffffffffffff82169050919050565b6000819050919050565b82818337600083830152505050565b60005b83811015610dec578082015181840152602081019050610dd1565b83811115610dfb576000848401525b50505050565b610e0a82610e61565b810181811067ffffffffffffffff82111715610e2957610e28610e32565b5b80604052505050565b7f4e487b7100000000000000000000000000000000000000000000000000000000600052604160045260246000fd5b6000601f19601f8301169050919050565b7f436f756e7465723a2064656372656d656e74206f766572666c6f770000000000600082015250565b7f45524331393637557067726164653a207570677261646520627265616b73206660008201527f7572746865722075706772616465730000000000000000000000000000000000602082015250565b7f46756e6374696f6e206d7573742062652063616c6c6564207468726f7567682060008201527f64656c656761746563616c6c0000000000000000000000000000000000000000602082015250565b7f46756e6374696f6e206d7573742062652063616c6c6564207468726f7567682060008201527f6163746976652070726f78790000000000000000000000000000000000000000602082015250565b7f455243313936373a206e657720696d706c656d656e746174696f6e206973206e60008201527f6f74206120636f6e747261637400000000000000000000000000000000000000602082015250565b7f416464726573733a2064656c65676174652063616c6c20746f206e6f6e2d636f60008201527f6e74726163740000000000000000000000000000000000000000000000000000602082015250565b61102f81610d83565b811461103a57600080fd5b5056fe416464726573733a206c6f772d6c6576656c2064656c65676174652063616c6c206661696c6564a2646970667358221220a095e223f72f7004a2c1ad6ca22791a4e71300ad963839f11dcacba09398d9da64736f6c63430008030033",
  "linkReferences": {},
  "deployedLinkReferences": {}
}