{
  "contractName": "ECRecoveryMock",
  "abi": [
    {
      "constant": true,
      "inputs": [
        {
          "name": "hash",
          "type": "bytes32"
        },
        {
          "name": "sig",
          "type": "bytes"
        }
      ],
      "name": "recover",
      "outputs": [
        {
          "name": "",
          "type": "address"
        }
      ],
      "payable": false,
      "stateMutability": "pure",
      "type": "function"
    },
    {
      "constant": true,
      "inputs": [
        {
          "name": "hash",
          "type": "bytes32"
        }
      ],
      "name": "toEthSignedMessageHash",
      "outputs": [
        {
          "name": "",
          "type": "bytes32"
        }
      ],
      "payable": false,
      "stateMutability": "pure",
      "type": "function"
    }
  ],
  "bytecode": "0x608060405234801561001057600080fd5b506102ff806100206000396000f30060806040526004361061004c576000357c0100000000000000000000000000000000000000000000000000000000900463ffffffff16806319045a2514610051578063918a15cf14610108575b600080fd5b34801561005d57600080fd5b506100c66004803603810190808035600019169060200190929190803590602001908201803590602001908080601f0160208091040260200160405190810160405280939291908181526020018383808284378201915050505050509192919290505050610155565b604051808273ffffffffffffffffffffffffffffffffffffffff1673ffffffffffffffffffffffffffffffffffffffff16815260200191505060405180910390f35b34801561011457600080fd5b506101376004803603810190808035600019169060200190929190505050610176565b60405180826000191660001916815260200191505060405180910390f35b600061016e82846000191661018c90919063ffffffff16565b905092915050565b60006101858260001916610284565b9050919050565b600080600080604185511415156101a6576000935061027b565b6020850151925060408501519150606085015160001a9050601b8160ff1610156101d157601b810190505b601b8160ff16141580156101e95750601c8160ff1614155b156101f7576000935061027b565b600186828585604051600081526020016040526040518085600019166000191681526020018460ff1660ff1681526020018360001916600019168152602001826000191660001916815260200194505050505060206040516020810390808403906000865af115801561026e573d6000803e3d6000fd5b5050506020604051035193505b50505092915050565b60008160405180807f19457468657265756d205369676e6564204d6573736167653a0a333200000000815250601c018260001916600019168152602001915050604051809103902090509190505600a165627a7a72305820a2769dc8e9f4d5a3a8282cfccab7c4c57ba118fcfa7361272fd31b68b0f6cd850029",
  "source": "pragma solidity ^0.4.21;\n\n\nimport \"../ECRecovery.sol\";\n\n\ncontract ECRecoveryMock {\n  using ECRecovery for bytes32;\n\n  function recover(bytes32 hash, bytes sig)\n    public\n    pure\n    returns (address)\n  {\n    return hash.recover(sig);\n  }\n\n  function toEthSignedMessageHash(bytes32 hash)\n    public\n    pure\n    returns (bytes32)\n  {\n    return hash.toEthSignedMessageHash();\n  }\n}\n",
  "sourcePath": "/home/spalladino/Projects/openzeppelin-zos/contracts/mocks/ECRecoveryMock.sol",
  "compiler": {
    "name": "solc",
    "version": "0.4.23+commit.124ca40d.Emscripten.clang"
  },
  "schemaVersion": "2.0.0",
  "updatedAt": "2018-08-27T20:45:00.204Z"
}