{
  "contractName": "ERC721ReceiverMock",
  "abi": [
    {
      "inputs": [
        {
          "name": "_retval",
          "type": "bytes4"
        },
        {
          "name": "_reverts",
          "type": "bool"
        }
      ],
      "payable": false,
      "stateMutability": "nonpayable",
      "type": "constructor"
    },
    {
      "anonymous": false,
      "inputs": [
        {
          "indexed": false,
          "name": "_address",
          "type": "address"
        },
        {
          "indexed": false,
          "name": "_tokenId",
          "type": "uint256"
        },
        {
          "indexed": false,
          "name": "_data",
          "type": "bytes"
        },
        {
          "indexed": false,
          "name": "_gas",
          "type": "uint256"
        }
      ],
      "name": "Received",
      "type": "event"
    },
    {
      "constant": false,
      "inputs": [
        {
          "name": "_address",
          "type": "address"
        },
        {
          "name": "_tokenId",
          "type": "uint256"
        },
        {
          "name": "_data",
          "type": "bytes"
        }
      ],
      "name": "onERC721Received",
      "outputs": [
        {
          "name": "",
          "type": "bytes4"
        }
      ],
      "payable": false,
      "stateMutability": "nonpayable",
      "type": "function"
    }
  ],
  "bytecode": "0x608060405234801561001057600080fd5b5060405160408061032a8339810180604052810190808051906020019092919080519060200190929190505050816000806101000a81548163ffffffff02191690837c01000000000000000000000000000000000000000000000000000000009004021790555080600060046101000a81548160ff0219169083151502179055505050610288806100a26000396000f300608060405260043610610041576000357c0100000000000000000000000000000000000000000000000000000000900463ffffffff168063f0b9e5ba14610046575b600080fd5b34801561005257600080fd5b506100d7600480360381019080803573ffffffffffffffffffffffffffffffffffffffff16906020019092919080359060200190929190803590602001908201803590602001908080601f016020809104026020016040519081016040528093929190818152602001838380828437820191505050505050919291929050505061012b565b60405180827bffffffffffffffffffffffffffffffffffffffffffffffffffffffff19167bffffffffffffffffffffffffffffffffffffffffffffffffffffffff1916815260200191505060405180910390f35b60008060049054906101000a900460ff1615151561014857600080fd5b7f52548e4e28236d78290c101c358cfbcd432a3b9c0063ecb10e6cb5aad585329b8484845a604051808573ffffffffffffffffffffffffffffffffffffffff1673ffffffffffffffffffffffffffffffffffffffff16815260200184815260200180602001838152602001828103825284818151815260200191508051906020019080838360005b838110156101eb5780820151818401526020810190506101d0565b50505050905090810190601f1680156102185780820380516001836020036101000a031916815260200191505b509550505050505060405180910390a16000809054906101000a90047c010000000000000000000000000000000000000000000000000000000002905093925050505600a165627a7a72305820f8b4cba0467e03b7d56ebe02cc1741cfe0a1c286bfdebaabf17a8a10e369cf410029",
  "source": "pragma solidity ^0.4.21;\n\nimport \"../token/ERC721/ERC721Receiver.sol\";\n\n\ncontract ERC721ReceiverMock is ERC721Receiver {\n  bytes4 retval;\n  bool reverts;\n\n  event Received(address _address, uint256 _tokenId, bytes _data, uint256 _gas);\n\n  function ERC721ReceiverMock(bytes4 _retval, bool _reverts) public {\n    retval = _retval;\n    reverts = _reverts;\n  }\n\n  function onERC721Received(\n    address _address,\n    uint256 _tokenId,\n    bytes _data\n  )\n    public\n    returns(bytes4)\n  {\n    require(!reverts);\n    emit Received(\n      _address,\n      _tokenId,\n      _data,\n      gasleft() // msg.gas was deprecated in solidityv0.4.21\n    );\n    return retval;\n  }\n}\n",
  "sourcePath": "/home/spalladino/Projects/openzeppelin-zos/contracts/mocks/ERC721ReceiverMock.sol",
  "compiler": {
    "name": "solc",
    "version": "0.4.24+commit.e67f0147.Emscripten.clang"
  },
  "schemaVersion": "2.0.1",
  "updatedAt": "2018-08-23T14:35:50.620Z"
}