{
  "contractName": "MerkleProofWrapper",
  "abi": [
    {
      "constant": true,
      "inputs": [
        {
          "name": "_proof",
          "type": "bytes32[]"
        },
        {
          "name": "_root",
          "type": "bytes32"
        },
        {
          "name": "_leaf",
          "type": "bytes32"
        }
      ],
      "name": "verifyProof",
      "outputs": [
        {
          "name": "",
          "type": "bool"
        }
      ],
      "payable": false,
      "stateMutability": "pure",
      "type": "function"
    }
  ],
  "bytecode": "0x608060405234801561001057600080fd5b506101ed806100206000396000f300608060405260043610610041576000357c0100000000000000000000000000000000000000000000000000000000900463ffffffff1680634bc935d714610046575b600080fd5b34801561005257600080fd5b506100c660048036038101908080359060200190820180359060200190808060200260200160405190810160405280939291908181526020018383602002808284378201915050505050509192919290803560001916906020019092919080356000191690602001909291905050506100e0565b604051808215151515815260200191505060405180910390f35b60006100ed8484846100f6565b90509392505050565b600080600080849250600091505b86518210156101aa57868281518110151561011b57fe5b90602001906020020151905080600019168360001916101561016c5782816040518083600019166000191681526020018260001916600019168152602001925050506040518091039020925061019d565b8083604051808360001916600019168152602001826000191660001916815260200192505050604051809103902092505b8180600101925050610104565b8560001916836000191614935050505093925050505600a165627a7a723058208c1f625351de14babc2fa1c8992cd7bac590bfd4976454d05559851d824e803d0029",
  "source": "pragma solidity ^0.4.21;\n\nimport { MerkleProof } from \"../MerkleProof.sol\";\n\n\ncontract MerkleProofWrapper {\n\n  function verifyProof(bytes32[] _proof, bytes32 _root, bytes32 _leaf) public pure returns (bool) {\n    return MerkleProof.verifyProof(_proof, _root, _leaf);\n  }\n}\n",
  "sourcePath": "/home/spalladino/Projects/openzeppelin-zos/contracts/mocks/MerkleProofWrapper.sol",
  "compiler": {
    "name": "solc",
    "version": "0.4.23+commit.124ca40d.Emscripten.clang"
  },
  "schemaVersion": "2.0.0",
  "updatedAt": "2018-08-27T20:45:00.206Z"
}