{
  "contractName": "RBACMock",
  "abi": [
    {
      "constant": true,
      "inputs": [
        {
          "name": "addr",
          "type": "address"
        },
        {
          "name": "roleName",
          "type": "string"
        }
      ],
      "name": "checkRole",
      "outputs": [],
      "payable": false,
      "stateMutability": "view",
      "type": "function"
    },
    {
      "constant": true,
      "inputs": [
        {
          "name": "addr",
          "type": "address"
        },
        {
          "name": "roleName",
          "type": "string"
        }
      ],
      "name": "hasRole",
      "outputs": [
        {
          "name": "",
          "type": "bool"
        }
      ],
      "payable": false,
      "stateMutability": "view",
      "type": "function"
    },
    {
      "constant": false,
      "inputs": [
        {
          "name": "addr",
          "type": "address"
        },
        {
          "name": "roleName",
          "type": "string"
        }
      ],
      "name": "adminRemoveRole",
      "outputs": [],
      "payable": false,
      "stateMutability": "nonpayable",
      "type": "function"
    },
    {
      "constant": false,
      "inputs": [
        {
          "name": "addr",
          "type": "address"
        },
        {
          "name": "roleName",
          "type": "string"
        }
      ],
      "name": "adminAddRole",
      "outputs": [],
      "payable": false,
      "stateMutability": "nonpayable",
      "type": "function"
    },
    {
      "constant": true,
      "inputs": [
        {
          "name": "contractName",
          "type": "string"
        },
        {
          "name": "migrationId",
          "type": "string"
        }
      ],
      "name": "isMigrated",
      "outputs": [
        {
          "name": "",
          "type": "bool"
        }
      ],
      "payable": false,
      "stateMutability": "view",
      "type": "function"
    },
    {
      "constant": false,
      "inputs": [
        {
          "name": "initialAdmin",
          "type": "address"
        }
      ],
      "name": "initialize",
      "outputs": [],
      "payable": false,
      "stateMutability": "nonpayable",
      "type": "function"
    },
    {
      "constant": true,
      "inputs": [],
      "name": "ROLE_ADMIN",
      "outputs": [
        {
          "name": "",
          "type": "string"
        }
      ],
      "payable": false,
      "stateMutability": "view",
      "type": "function"
    },
    {
      "inputs": [
        {
          "name": "_advisors",
          "type": "address[]"
        }
      ],
      "payable": false,
      "stateMutability": "nonpayable",
      "type": "constructor"
    },
    {
      "anonymous": false,
      "inputs": [
        {
          "indexed": false,
          "name": "contractName",
          "type": "string"
        },
        {
          "indexed": false,
          "name": "migrationId",
          "type": "string"
        }
      ],
      "name": "Migrated",
      "type": "event"
    },
    {
      "anonymous": false,
      "inputs": [
        {
          "indexed": false,
          "name": "addr",
          "type": "address"
        },
        {
          "indexed": false,
          "name": "roleName",
          "type": "string"
        }
      ],
      "name": "RoleAdded",
      "type": "event"
    },
    {
      "anonymous": false,
      "inputs": [
        {
          "indexed": false,
          "name": "addr",
          "type": "address"
        },
        {
          "indexed": false,
          "name": "roleName",
          "type": "string"
        }
      ],
      "name": "RoleRemoved",
      "type": "event"
    },
    {
      "constant": true,
      "inputs": [],
      "name": "onlyAdminsCanDoThis",
      "outputs": [],
      "payable": false,
      "stateMutability": "view",
      "type": "function"
    },
    {
      "constant": true,
      "inputs": [],
      "name": "onlyAdvisorsCanDoThis",
      "outputs": [],
      "payable": false,
      "stateMutability": "view",
      "type": "function"
    },
    {
      "constant": true,
      "inputs": [],
      "name": "eitherAdminOrAdvisorCanDoThis",
      "outputs": [],
      "payable": false,
      "stateMutability": "view",
      "type": "function"
    },
    {
      "constant": true,
      "inputs": [],
      "name": "nobodyCanDoThis",
      "outputs": [],
      "payable": false,
      "stateMutability": "view",
      "type": "function"
    },
    {
      "constant": false,
      "inputs": [
        {
          "name": "_addr",
          "type": "address"
        }
      ],
      "name": "removeAdvisor",
      "outputs": [],
      "payable": false,
      "stateMutability": "nonpayable",
      "type": "function"
    }
  ],
  "bytecode": "0x60806040523480156200001157600080fd5b50604051620017ab380380620017ab83398101806040528101908080518201929190505050600062000057336200013464010000000002620009db176401000000009004565b620000a7336040805190810160405280600781526020017f61647669736f72000000000000000000000000000000000000000000000000008152506200041c640100000000026401000000009004565b600090505b81518110156200012c576200011e8282815181101515620000c957fe5b906020019060200201516040805190810160405280600781526020017f61647669736f72000000000000000000000000000000000000000000000000008152506200041c640100000000026401000000009004565b8080600101915050620000ac565b5050620006d0565b6040805190810160405280600d81526020017f524241435769746841646d696e000000000000000000000000000000000000008152506040805190810160405280600581526020017f312e392e30000000000000000000000000000000000000000000000000000000815250620001bb828262000582640100000000026401000000009004565b151515620001c857600080fd5b62000218836040805190810160405280600581526020017f61646d696e0000000000000000000000000000000000000000000000000000008152506200041c640100000000026401000000009004565b7fdd117a11c22118c9dee4b5a67ce578bc44529dce21ee0ccc439588fbb9fb4ea38282604051808060200180602001838103835285818151815260200191508051906020019080838360005b838110156200028157808201518184015260208101905062000264565b50505050905090810190601f168015620002af5780820380516001836020036101000a031916815260200191505b50838103825284818151815260200191508051906020019080838360005b83811015620002ea578082015181840152602081019050620002cd565b50505050905090810190601f168015620003185780820380516001836020036101000a031916815260200191505b5094505050505060405180910390a1600180836040518082805190602001908083835b6020831015156200036257805182526020820191506020810190506020830392506200033b565b6001836020036101000a0380198251168184511680821785525050505050509050019150509081526020016040518091039020826040518082805190602001908083835b602083101515620003cd5780518252602082019150602081019050602083039250620003a6565b6001836020036101000a038019825116818451168082178552505050505050905001915050908152602001604051809103902060006101000a81548160ff021916908315150217905550505050565b620004ab826000836040518082805190602001908083835b6020831015156200045b578051825260208201915060208101905060208303925062000434565b6001836020036101000a0380198251168184511680821785525050505050509050019150509081526020016040518091039020620006726401000000000262001041179091906401000000009004565b7fbfec83d64eaa953f2708271a023ab9ee82057f8f3578d548c1a4ba0b5b7004898282604051808373ffffffffffffffffffffffffffffffffffffffff1673ffffffffffffffffffffffffffffffffffffffff16815260200180602001828103825283818151815260200191508051906020019080838360005b838110156200054257808201518184015260208101905062000525565b50505050905090810190601f168015620005705780820380516001836020036101000a031916815260200191505b50935050505060405180910390a15050565b60006001836040518082805190602001908083835b602083101515620005be578051825260208201915060208101905060208303925062000597565b6001836020036101000a0380198251168184511680821785525050505050509050019150509081526020016040518091039020826040518082805190602001908083835b60208310151562000629578051825260208201915060208101905060208303925062000602565b6001836020036101000a038019825116818451168082178552505050505050905001915050908152602001604051809103902060009054906101000a900460ff16905092915050565b60018260000160008373ffffffffffffffffffffffffffffffffffffffff1673ffffffffffffffffffffffffffffffffffffffff16815260200190815260200160002060006101000a81548160ff0219169083151502179055505050565b6110cb80620006e06000396000f3006080604052600436106100ba576000357c0100000000000000000000000000000000000000000000000000000000900463ffffffff1680630988ca8c146100bf5780630eeccb841461014857806316aabcbd1461018b578063217fe6c6146101a2578063420d0ba4146102435780634fd3d1251461025a57806363a5bc711461027157806388cee87e14610288578063b25fa92c14610311578063c0bac1a81461039a578063c4d66de814610461578063d391014b146104a4575b600080fd5b3480156100cb57600080fd5b50610146600480360381019080803573ffffffffffffffffffffffffffffffffffffffff169060200190929190803590602001908201803590602001908080601f0160208091040260200160405190810160405280939291908181526020018383808284378201915050505050509192919290505050610534565b005b34801561015457600080fd5b50610189600480360381019080803573ffffffffffffffffffffffffffffffffffffffff1690602001909291905050506105b5565b005b34801561019757600080fd5b506101a0610675565b005b3480156101ae57600080fd5b50610229600480360381019080803573ffffffffffffffffffffffffffffffffffffffff169060200190929190803590602001908201803590602001908080601f01602080910402602001604051908101604052809392919081815260200183838082843782019150505050505091929192905050506106b8565b604051808215151515815260200191505060405180910390f35b34801561024f57600080fd5b5061025861073f565b005b34801561026657600080fd5b5061026f610782565b005b34801561027d57600080fd5b506102866107c3565b005b34801561029457600080fd5b5061030f600480360381019080803573ffffffffffffffffffffffffffffffffffffffff169060200190929190803590602001908201803590602001908080601f0160208091040260200160405190810160405280939291908181526020018383808284378201915050505050509192919290505050610855565b005b34801561031d57600080fd5b50610398600480360381019080803573ffffffffffffffffffffffffffffffffffffffff169060200190929190803590602001908201803590602001908080601f01602080910402602001604051908101604052809392919081815260200183838082843782019150505050505091929192905050506108a2565b005b3480156103a657600080fd5b50610447600480360381019080803590602001908201803590602001908080601f0160208091040260200160405190810160405280939291908181526020018383808284378201915050505050509192919290803590602001908201803590602001908080601f01602080910402602001604051908101604052809392919081815260200183838082843782019150505050505091929192905050506108ef565b604051808215151515815260200191505060405180910390f35b34801561046d57600080fd5b506104a2600480360381019080803573ffffffffffffffffffffffffffffffffffffffff1690602001909291905050506109db565b005b3480156104b057600080fd5b506104b9610c96565b6040518080602001828103825283818151815260200191508051906020019080838360005b838110156104f95780820151818401526020810190506104de565b50505050905090810190601f1680156105265780820380516001836020036101000a031916815260200191505b509250505060405180910390f35b6105b1826000836040518082805190602001908083835b602083101515610570578051825260208201915060208101905060208303925061054b565b6001836020036101000a0380198251168184511680821785525050505050509050019150509081526020016040518091039020610ccf90919063ffffffff16565b5050565b6105f4336040805190810160405280600581526020017f61646d696e000000000000000000000000000000000000000000000000000000815250610534565b610633816040805190810160405280600781526020017f61647669736f7200000000000000000000000000000000000000000000000000815250610534565b610672816040805190810160405280600781526020017f61647669736f7200000000000000000000000000000000000000000000000000815250610ce8565b50565b6040805190810160405280600781526020017f61647669736f72000000000000000000000000000000000000000000000000008152506106b53382610534565b50565b6000610737836000846040518082805190602001908083835b6020831015156106f657805182526020820191506020810190506020830392506106d1565b6001836020036101000a0380198251168184511680821785525050505050509050019150509081526020016040518091039020610e3990919063ffffffff16565b905092915050565b6040805190810160405280600781526020017f756e6b6e6f776e0000000000000000000000000000000000000000000000000081525061077f3382610534565b50565b6107c1336040805190810160405280600581526020017f61646d696e000000000000000000000000000000000000000000000000000000815250610534565b565b610802336040805190810160405280600581526020017f61646d696e0000000000000000000000000000000000000000000000000000008152506106b8565b806108485750610847336040805190810160405280600781526020017f61647669736f72000000000000000000000000000000000000000000000000008152506106b8565b5b151561085357600080fd5b565b610894336040805190810160405280600581526020017f61646d696e000000000000000000000000000000000000000000000000000000815250610534565b61089e8282610ce8565b5050565b6108e1336040805190810160405280600581526020017f61646d696e000000000000000000000000000000000000000000000000000000815250610534565b6108eb8282610e92565b5050565b60006001836040518082805190602001908083835b6020831015156109295780518252602082019150602081019050602083039250610904565b6001836020036101000a0380198251168184511680821785525050505050509050019150509081526020016040518091039020826040518082805190602001908083835b602083101515610992578051825260208201915060208101905060208303925061096d565b6001836020036101000a038019825116818451168082178552505050505050905001915050908152602001604051809103902060009054906101000a900460ff16905092915050565b6040805190810160405280600d81526020017f524241435769746841646d696e000000000000000000000000000000000000008152506040805190810160405280600581526020017f312e392e30000000000000000000000000000000000000000000000000000000815250610a5182826108ef565b151515610a5d57600080fd5b610a9c836040805190810160405280600581526020017f61646d696e000000000000000000000000000000000000000000000000000000815250610e92565b7fdd117a11c22118c9dee4b5a67ce578bc44529dce21ee0ccc439588fbb9fb4ea38282604051808060200180602001838103835285818151815260200191508051906020019080838360005b83811015610b03578082015181840152602081019050610ae8565b50505050905090810190601f168015610b305780820380516001836020036101000a031916815260200191505b50838103825284818151815260200191508051906020019080838360005b83811015610b69578082015181840152602081019050610b4e565b50505050905090810190601f168015610b965780820380516001836020036101000a031916815260200191505b5094505050505060405180910390a1600180836040518082805190602001908083835b602083101515610bde5780518252602082019150602081019050602083039250610bb9565b6001836020036101000a0380198251168184511680821785525050505050509050019150509081526020016040518091039020826040518082805190602001908083835b602083101515610c475780518252602082019150602081019050602083039250610c22565b6001836020036101000a038019825116818451168082178552505050505050905001915050908152602001604051809103902060006101000a81548160ff021916908315150217905550505050565b6040805190810160405280600581526020017f61646d696e00000000000000000000000000000000000000000000000000000081525081565b610cd98282610e39565b1515610ce457600080fd5b5050565b610d65826000836040518082805190602001908083835b602083101515610d245780518252602082019150602081019050602083039250610cff565b6001836020036101000a0380198251168184511680821785525050505050509050019150509081526020016040518091039020610fe390919063ffffffff16565b7fd211483f91fc6eff862467f8de606587a30c8fc9981056f051b897a418df803a8282604051808373ffffffffffffffffffffffffffffffffffffffff1673ffffffffffffffffffffffffffffffffffffffff16815260200180602001828103825283818151815260200191508051906020019080838360005b83811015610dfa578082015181840152602081019050610ddf565b50505050905090810190601f168015610e275780820380516001836020036101000a031916815260200191505b50935050505060405180910390a15050565b60008260000160008373ffffffffffffffffffffffffffffffffffffffff1673ffffffffffffffffffffffffffffffffffffffff16815260200190815260200160002060009054906101000a900460ff16905092915050565b610f0f826000836040518082805190602001908083835b602083101515610ece5780518252602082019150602081019050602083039250610ea9565b6001836020036101000a038019825116818451168082178552505050505050905001915050908152602001604051809103902061104190919063ffffffff16565b7fbfec83d64eaa953f2708271a023ab9ee82057f8f3578d548c1a4ba0b5b7004898282604051808373ffffffffffffffffffffffffffffffffffffffff1673ffffffffffffffffffffffffffffffffffffffff16815260200180602001828103825283818151815260200191508051906020019080838360005b83811015610fa4578082015181840152602081019050610f89565b50505050905090810190601f168015610fd15780820380516001836020036101000a031916815260200191505b50935050505060405180910390a15050565b60008260000160008373ffffffffffffffffffffffffffffffffffffffff1673ffffffffffffffffffffffffffffffffffffffff16815260200190815260200160002060006101000a81548160ff0219169083151502179055505050565b60018260000160008373ffffffffffffffffffffffffffffffffffffffff1673ffffffffffffffffffffffffffffffffffffffff16815260200190815260200160002060006101000a81548160ff02191690831515021790555050505600a165627a7a72305820855e8e0794f7de69d16379d146ebcb778e38acec511066275159a9672353be190029",
  "source": "pragma solidity ^0.4.21;\n\nimport \"../ownership/rbac/RBACWithAdmin.sol\";\n\n\ncontract RBACMock is RBACWithAdmin {\n\n  string constant ROLE_ADVISOR = \"advisor\";\n\n  modifier onlyAdminOrAdvisor()\n  {\n    require(\n      hasRole(msg.sender, ROLE_ADMIN) ||\n      hasRole(msg.sender, ROLE_ADVISOR)\n    );\n    _;\n  }\n\n  function RBACMock(address[] _advisors)\n    public\n  {\n    RBACWithAdmin.initialize(msg.sender);\n\n    addRole(msg.sender, ROLE_ADVISOR);\n\n    for (uint256 i = 0; i < _advisors.length; i++) {\n      addRole(_advisors[i], ROLE_ADVISOR);\n    }\n  }\n\n  function onlyAdminsCanDoThis()\n    onlyAdmin\n    view\n    external\n  {\n  }\n\n  function onlyAdvisorsCanDoThis()\n    onlyRole(ROLE_ADVISOR)\n    view\n    external\n  {\n  }\n\n  function eitherAdminOrAdvisorCanDoThis()\n    onlyAdminOrAdvisor\n    view\n    external\n  {\n  }\n\n  function nobodyCanDoThis()\n    onlyRole(\"unknown\")\n    view\n    external\n  {\n  }\n\n  // admins can remove advisor's role\n  function removeAdvisor(address _addr)\n    onlyAdmin\n    public\n  {\n    // revert if the user isn't an advisor\n    //  (perhaps you want to soft-fail here instead?)\n    checkRole(_addr, ROLE_ADVISOR);\n\n    // remove the advisor's role\n    removeRole(_addr, ROLE_ADVISOR);\n  }\n}\n",
  "sourcePath": "/home/spalladino/Projects/openzeppelin-zos/contracts/mocks/RBACMock.sol",
  "compiler": {
    "name": "solc",
    "version": "0.4.23+commit.124ca40d.Emscripten.clang"
  },
  "schemaVersion": "2.0.0",
  "updatedAt": "2018-08-27T20:45:00.206Z"
}