{
  "contractName": "TokenVesting",
  "abi": [
    {
      "constant": true,
      "inputs": [],
      "name": "duration",
      "outputs": [
        {
          "name": "",
          "type": "uint256"
        }
      ],
      "payable": false,
      "stateMutability": "view",
      "type": "function"
    },
    {
      "constant": true,
      "inputs": [],
      "name": "cliff",
      "outputs": [
        {
          "name": "",
          "type": "uint256"
        }
      ],
      "payable": false,
      "stateMutability": "view",
      "type": "function"
    },
    {
      "constant": true,
      "inputs": [],
      "name": "beneficiary",
      "outputs": [
        {
          "name": "",
          "type": "address"
        }
      ],
      "payable": false,
      "stateMutability": "view",
      "type": "function"
    },
    {
      "constant": true,
      "inputs": [],
      "name": "revocable",
      "outputs": [
        {
          "name": "",
          "type": "bool"
        }
      ],
      "payable": false,
      "stateMutability": "view",
      "type": "function"
    },
    {
      "constant": true,
      "inputs": [],
      "name": "owner",
      "outputs": [
        {
          "name": "",
          "type": "address"
        }
      ],
      "payable": false,
      "stateMutability": "view",
      "type": "function"
    },
    {
      "constant": true,
      "inputs": [
        {
          "name": "",
          "type": "address"
        }
      ],
      "name": "released",
      "outputs": [
        {
          "name": "",
          "type": "uint256"
        }
      ],
      "payable": false,
      "stateMutability": "view",
      "type": "function"
    },
    {
      "constant": true,
      "inputs": [],
      "name": "start",
      "outputs": [
        {
          "name": "",
          "type": "uint256"
        }
      ],
      "payable": false,
      "stateMutability": "view",
      "type": "function"
    },
    {
      "constant": true,
      "inputs": [
        {
          "name": "contractName",
          "type": "string"
        },
        {
          "name": "migrationId",
          "type": "string"
        }
      ],
      "name": "isMigrated",
      "outputs": [
        {
          "name": "",
          "type": "bool"
        }
      ],
      "payable": false,
      "stateMutability": "view",
      "type": "function"
    },
    {
      "constant": false,
      "inputs": [
        {
          "name": "newOwner",
          "type": "address"
        }
      ],
      "name": "transferOwnership",
      "outputs": [],
      "payable": false,
      "stateMutability": "nonpayable",
      "type": "function"
    },
    {
      "constant": true,
      "inputs": [
        {
          "name": "",
          "type": "address"
        }
      ],
      "name": "revoked",
      "outputs": [
        {
          "name": "",
          "type": "bool"
        }
      ],
      "payable": false,
      "stateMutability": "view",
      "type": "function"
    },
    {
      "anonymous": false,
      "inputs": [
        {
          "indexed": false,
          "name": "amount",
          "type": "uint256"
        }
      ],
      "name": "Released",
      "type": "event"
    },
    {
      "anonymous": false,
      "inputs": [],
      "name": "Revoked",
      "type": "event"
    },
    {
      "anonymous": false,
      "inputs": [
        {
          "indexed": true,
          "name": "previousOwner",
          "type": "address"
        },
        {
          "indexed": true,
          "name": "newOwner",
          "type": "address"
        }
      ],
      "name": "OwnershipTransferred",
      "type": "event"
    },
    {
      "anonymous": false,
      "inputs": [
        {
          "indexed": false,
          "name": "contractName",
          "type": "string"
        },
        {
          "indexed": false,
          "name": "migrationId",
          "type": "string"
        }
      ],
      "name": "Migrated",
      "type": "event"
    },
    {
      "constant": false,
      "inputs": [
        {
          "name": "_sender",
          "type": "address"
        },
        {
          "name": "_beneficiary",
          "type": "address"
        },
        {
          "name": "_start",
          "type": "uint256"
        },
        {
          "name": "_cliff",
          "type": "uint256"
        },
        {
          "name": "_duration",
          "type": "uint256"
        },
        {
          "name": "_revocable",
          "type": "bool"
        }
      ],
      "name": "initialize",
      "outputs": [],
      "payable": false,
      "stateMutability": "nonpayable",
      "type": "function"
    },
    {
      "constant": false,
      "inputs": [
        {
          "name": "_sender",
          "type": "address"
        }
      ],
      "name": "initialize",
      "outputs": [],
      "payable": false,
      "stateMutability": "nonpayable",
      "type": "function"
    },
    {
      "constant": false,
      "inputs": [
        {
          "name": "token",
          "type": "address"
        }
      ],
      "name": "release",
      "outputs": [],
      "payable": false,
      "stateMutability": "nonpayable",
      "type": "function"
    },
    {
      "constant": false,
      "inputs": [
        {
          "name": "token",
          "type": "address"
        }
      ],
      "name": "revoke",
      "outputs": [],
      "payable": false,
      "stateMutability": "nonpayable",
      "type": "function"
    },
    {
      "constant": true,
      "inputs": [
        {
          "name": "token",
          "type": "address"
        }
      ],
      "name": "releasableAmount",
      "outputs": [
        {
          "name": "",
          "type": "uint256"
        }
      ],
      "payable": false,
      "stateMutability": "view",
      "type": "function"
    },
    {
      "constant": true,
      "inputs": [
        {
          "name": "token",
          "type": "address"
        }
      ],
      "name": "vestedAmount",
      "outputs": [
        {
          "name": "",
          "type": "uint256"
        }
      ],
      "payable": false,
      "stateMutability": "view",
      "type": "function"
    }
  ],
  "bytecode": "0x608060405234801561001057600080fd5b506116e9806100206000396000f3006080604052600436106100e6576000357c0100000000000000000000000000000000000000000000000000000000900463ffffffff1680630fb5a6b4146100eb57806313d033c0146101165780631726cbc8146101415780631916558714610198578063384711cc146101db57806338af3eed1461023257806374a8f10314610289578063872a7810146102cc5780638da5cb5b146102fb578063914a4ed7146103525780639852595c146103df578063be9a655514610436578063c0bac1a814610461578063c4d66de814610528578063f2fde38b1461056b578063fa01dc06146105ae575b600080fd5b3480156100f757600080fd5b50610100610609565b6040518082815260200191505060405180910390f35b34801561012257600080fd5b5061012b61060f565b6040518082815260200191505060405180910390f35b34801561014d57600080fd5b50610182600480360381019080803573ffffffffffffffffffffffffffffffffffffffff169060200190929190505050610615565b6040518082815260200191505060405180910390f35b3480156101a457600080fd5b506101d9600480360381019080803573ffffffffffffffffffffffffffffffffffffffff169060200190929190505050610678565b005b3480156101e757600080fd5b5061021c600480360381019080803573ffffffffffffffffffffffffffffffffffffffff1690602001909291905050506107b1565b6040518082815260200191505060405180910390f35b34801561023e57600080fd5b506102476109b5565b604051808273ffffffffffffffffffffffffffffffffffffffff1673ffffffffffffffffffffffffffffffffffffffff16815260200191505060405180910390f35b34801561029557600080fd5b506102ca600480360381019080803573ffffffffffffffffffffffffffffffffffffffff1690602001909291905050506109db565b005b3480156102d857600080fd5b506102e1610c7f565b604051808215151515815260200191505060405180910390f35b34801561030757600080fd5b50610310610c92565b604051808273ffffffffffffffffffffffffffffffffffffffff1673ffffffffffffffffffffffffffffffffffffffff16815260200191505060405180910390f35b34801561035e57600080fd5b506103dd600480360381019080803573ffffffffffffffffffffffffffffffffffffffff169060200190929190803573ffffffffffffffffffffffffffffffffffffffff169060200190929190803590602001909291908035906020019092919080359060200190929190803515159060200190929190505050610cb8565b005b3480156103eb57600080fd5b50610420600480360381019080803573ffffffffffffffffffffffffffffffffffffffff169060200190929190505050611010565b6040518082815260200191505060405180910390f35b34801561044257600080fd5b5061044b611028565b6040518082815260200191505060405180910390f35b34801561046d57600080fd5b5061050e600480360381019080803590602001908201803590602001908080601f0160208091040260200160405190810160405280939291908181526020018383808284378201915050505050509192919290803590602001908201803590602001908080601f016020809104026020016040519081016040528093929190818152602001838380828437820191505050505050919291929050505061102e565b604051808215151515815260200191505060405180910390f35b34801561053457600080fd5b50610569600480360381019080803573ffffffffffffffffffffffffffffffffffffffff169060200190929190505050611119565b005b34801561057757600080fd5b506105ac600480360381019080803573ffffffffffffffffffffffffffffffffffffffff1690602001909291905050506113d7565b005b3480156105ba57600080fd5b506105ef600480360381019080803573ffffffffffffffffffffffffffffffffffffffff16906020019092919050505061152f565b604051808215151515815260200191505060405180910390f35b60055481565b60035481565b6000610671600760008473ffffffffffffffffffffffffffffffffffffffff1673ffffffffffffffffffffffffffffffffffffffff16815260200190815260200160002054610663846107b1565b61154f90919063ffffffff16565b9050919050565b600061068382610615565b905060008111151561069457600080fd5b6106e681600760008573ffffffffffffffffffffffffffffffffffffffff1673ffffffffffffffffffffffffffffffffffffffff1681526020019081526020016000205461156890919063ffffffff16565b600760008473ffffffffffffffffffffffffffffffffffffffff1673ffffffffffffffffffffffffffffffffffffffff16815260200190815260200160002081905550610776600260009054906101000a900473ffffffffffffffffffffffffffffffffffffffff16828473ffffffffffffffffffffffffffffffffffffffff166115849092919063ffffffff16565b7ffb81f9b30d73d830c3544b34d827c08142579ee75710b490bab0b3995468c565816040518082815260200191505060405180910390a15050565b60008060008373ffffffffffffffffffffffffffffffffffffffff166370a08231306040518263ffffffff167c0100000000000000000000000000000000000000000000000000000000028152600401808273ffffffffffffffffffffffffffffffffffffffff1673ffffffffffffffffffffffffffffffffffffffff168152602001915050602060405180830381600087803b15801561085157600080fd5b505af1158015610865573d6000803e3d6000fd5b505050506040513d602081101561087b57600080fd5b810190808051906020019092919050505091506108e0600760008673ffffffffffffffffffffffffffffffffffffffff1673ffffffffffffffffffffffffffffffffffffffff168152602001908152602001600020548361156890919063ffffffff16565b90506003544210156108f557600092506109ae565b61090c60055460045461156890919063ffffffff16565b421015806109635750600860008573ffffffffffffffffffffffffffffffffffffffff1673ffffffffffffffffffffffffffffffffffffffff16815260200190815260200160002060009054906101000a900460ff165b15610970578092506109ae565b6109ab60055461099d61098e6004544261154f90919063ffffffff16565b8461166f90919063ffffffff16565b6116a790919063ffffffff16565b92505b5050919050565b600260009054906101000a900473ffffffffffffffffffffffffffffffffffffffff1681565b6000806000600160009054906101000a900473ffffffffffffffffffffffffffffffffffffffff1673ffffffffffffffffffffffffffffffffffffffff163373ffffffffffffffffffffffffffffffffffffffff16141515610a3c57600080fd5b600660009054906101000a900460ff161515610a5757600080fd5b600860008573ffffffffffffffffffffffffffffffffffffffff1673ffffffffffffffffffffffffffffffffffffffff16815260200190815260200160002060009054906101000a900460ff16151515610ab057600080fd5b8373ffffffffffffffffffffffffffffffffffffffff166370a08231306040518263ffffffff167c0100000000000000000000000000000000000000000000000000000000028152600401808273ffffffffffffffffffffffffffffffffffffffff1673ffffffffffffffffffffffffffffffffffffffff168152602001915050602060405180830381600087803b158015610b4b57600080fd5b505af1158015610b5f573d6000803e3d6000fd5b505050506040513d6020811015610b7557600080fd5b81019080805190602001909291905050509250610b9184610615565b9150610ba6828461154f90919063ffffffff16565b90506001600860008673ffffffffffffffffffffffffffffffffffffffff1673ffffffffffffffffffffffffffffffffffffffff16815260200190815260200160002060006101000a81548160ff021916908315150217905550610c4d600160009054906101000a900473ffffffffffffffffffffffffffffffffffffffff16828673ffffffffffffffffffffffffffffffffffffffff166115849092919063ffffffff16565b7f44825a4b2df8acb19ce4e1afba9aa850c8b65cdb7942e2078f27d0b0960efee660405160405180910390a150505050565b600660009054906101000a900460ff1681565b600160009054906101000a900473ffffffffffffffffffffffffffffffffffffffff1681565b6040805190810160405280600c81526020017f546f6b656e56657374696e6700000000000000000000000000000000000000008152506040805190810160405280600581526020017f312e392e30000000000000000000000000000000000000000000000000000000815250610d2e828261102e565b151515610d3a57600080fd5b610d4388611119565b600073ffffffffffffffffffffffffffffffffffffffff168773ffffffffffffffffffffffffffffffffffffffff1614151515610d7f57600080fd5b838511151515610d8e57600080fd5b86600260006101000a81548173ffffffffffffffffffffffffffffffffffffffff021916908373ffffffffffffffffffffffffffffffffffffffff16021790555082600660006101000a81548160ff02191690831515021790555083600581905550610e03858761156890919063ffffffff16565b600381905550856004819055507fdd117a11c22118c9dee4b5a67ce578bc44529dce21ee0ccc439588fbb9fb4ea38282604051808060200180602001838103835285818151815260200191508051906020019080838360005b83811015610e77578082015181840152602081019050610e5c565b50505050905090810190601f168015610ea45780820380516001836020036101000a031916815260200191505b50838103825284818151815260200191508051906020019080838360005b83811015610edd578082015181840152602081019050610ec2565b50505050905090810190601f168015610f0a5780820380516001836020036101000a031916815260200191505b5094505050505060405180910390a160016000836040518082805190602001908083835b602083101515610f535780518252602082019150602081019050602083039250610f2e565b6001836020036101000a0380198251168184511680821785525050505050509050019150509081526020016040518091039020826040518082805190602001908083835b602083101515610fbc5780518252602082019150602081019050602083039250610f97565b6001836020036101000a038019825116818451168082178552505050505050905001915050908152602001604051809103902060006101000a81548160ff0219169083151502179055505050505050505050565b60076020528060005260406000206000915090505481565b60045481565b600080836040518082805190602001908083835b6020831015156110675780518252602082019150602081019050602083039250611042565b6001836020036101000a0380198251168184511680821785525050505050509050019150509081526020016040518091039020826040518082805190602001908083835b6020831015156110d057805182526020820191506020810190506020830392506110ab565b6001836020036101000a038019825116818451168082178552505050505050905001915050908152602001604051809103902060009054906101000a900460ff16905092915050565b6040805190810160405280600781526020017f4f776e61626c65000000000000000000000000000000000000000000000000008152506040805190810160405280600581526020017f312e392e3000000000000000000000000000000000000000000000000000000081525061118f828261102e565b15151561119b57600080fd5b82600160006101000a81548173ffffffffffffffffffffffffffffffffffffffff021916908373ffffffffffffffffffffffffffffffffffffffff1602179055507fdd117a11c22118c9dee4b5a67ce578bc44529dce21ee0ccc439588fbb9fb4ea38282604051808060200180602001838103835285818151815260200191508051906020019080838360005b83811015611243578082015181840152602081019050611228565b50505050905090810190601f1680156112705780820380516001836020036101000a031916815260200191505b50838103825284818151815260200191508051906020019080838360005b838110156112a957808201518184015260208101905061128e565b50505050905090810190601f1680156112d65780820380516001836020036101000a031916815260200191505b5094505050505060405180910390a160016000836040518082805190602001908083835b60208310151561131f57805182526020820191506020810190506020830392506112fa565b6001836020036101000a0380198251168184511680821785525050505050509050019150509081526020016040518091039020826040518082805190602001908083835b6020831015156113885780518252602082019150602081019050602083039250611363565b6001836020036101000a038019825116818451168082178552505050505050905001915050908152602001604051809103902060006101000a81548160ff021916908315150217905550505050565b600160009054906101000a900473ffffffffffffffffffffffffffffffffffffffff1673ffffffffffffffffffffffffffffffffffffffff163373ffffffffffffffffffffffffffffffffffffffff1614151561143357600080fd5b600073ffffffffffffffffffffffffffffffffffffffff168173ffffffffffffffffffffffffffffffffffffffff161415151561146f57600080fd5b8073ffffffffffffffffffffffffffffffffffffffff16600160009054906101000a900473ffffffffffffffffffffffffffffffffffffffff1673ffffffffffffffffffffffffffffffffffffffff167f8be0079c531659141344cd1fd0a4f28419497f9722a3daafe3b4186f6b6457e060405160405180910390a380600160006101000a81548173ffffffffffffffffffffffffffffffffffffffff021916908373ffffffffffffffffffffffffffffffffffffffff16021790555050565b60086020528060005260406000206000915054906101000a900460ff1681565b600082821115151561155d57fe5b818303905092915050565b6000818301905082811015151561157b57fe5b80905092915050565b8273ffffffffffffffffffffffffffffffffffffffff1663a9059cbb83836040518363ffffffff167c0100000000000000000000000000000000000000000000000000000000028152600401808373ffffffffffffffffffffffffffffffffffffffff1673ffffffffffffffffffffffffffffffffffffffff16815260200182815260200192505050602060405180830381600087803b15801561162757600080fd5b505af115801561163b573d6000803e3d6000fd5b505050506040513d602081101561165157600080fd5b8101908080519060200190929190505050151561166a57fe5b505050565b60008083141561168257600090506116a1565b818302905081838281151561169357fe5b0414151561169d57fe5b8090505b92915050565b600081838115156116b457fe5b049050929150505600a165627a7a72305820554e928f0600bea2cf1981a656fc751b8fd102742f802c40328a22062cc6cc630029",
  "source": "/* solium-disable security/no-block-members */\n\npragma solidity ^0.4.21;\n\nimport \"./ERC20Basic.sol\";\nimport \"./SafeERC20.sol\";\nimport \"../../ownership/Ownable.sol\";\nimport \"../../math/SafeMath.sol\";\nimport \"zos-lib/contracts/migrations/Migratable.sol\";\n\n\n/**\n * @title TokenVesting\n * @dev A token holder contract that can release its token balance gradually like a\n * typical vesting scheme, with a cliff and vesting period. Optionally revocable by the\n * owner.\n */\ncontract TokenVesting is Migratable, Ownable {\n  using SafeMath for uint256;\n  using SafeERC20 for ERC20Basic;\n\n  event Released(uint256 amount);\n  event Revoked();\n\n  // beneficiary of tokens after they are released\n  address public beneficiary;\n\n  uint256 public cliff;\n  uint256 public start;\n  uint256 public duration;\n\n  bool public revocable;\n\n  mapping (address => uint256) public released;\n  mapping (address => bool) public revoked;\n\n  /**\n   * @dev Creates a vesting contract that vests its balance of any ERC20 token to the\n   * _beneficiary, gradually in a linear fashion until _start + _duration. By then all\n   * of the balance will have vested.\n   * @param _beneficiary address of the beneficiary to whom vested tokens are transferred\n   * @param _cliff duration in seconds of the cliff in which tokens will begin to vest\n   * @param _duration duration in seconds of the period in which the tokens will vest\n   * @param _revocable whether the vesting is revocable or not\n   */\n  function initialize(\n    address _sender,\n    address _beneficiary,\n    uint256 _start,\n    uint256 _cliff,\n    uint256 _duration,\n    bool _revocable\n  )\n    public\n    isInitializer(\"TokenVesting\", \"1.9.0\")\n  {\n    Ownable.initialize(_sender);\n\n    require(_beneficiary != address(0));\n    require(_cliff <= _duration);\n\n    beneficiary = _beneficiary;\n    revocable = _revocable;\n    duration = _duration;\n    cliff = _start.add(_cliff);\n    start = _start;\n  }\n\n  /**\n   * @notice Transfers vested tokens to beneficiary.\n   * @param token ERC20 token which is being vested\n   */\n  function release(ERC20Basic token) public {\n    uint256 unreleased = releasableAmount(token);\n\n    require(unreleased > 0);\n\n    released[token] = released[token].add(unreleased);\n\n    token.safeTransfer(beneficiary, unreleased);\n\n    emit Released(unreleased);\n  }\n\n  /**\n   * @notice Allows the owner to revoke the vesting. Tokens already vested\n   * remain in the contract, the rest are returned to the owner.\n   * @param token ERC20 token which is being vested\n   */\n  function revoke(ERC20Basic token) public onlyOwner {\n    require(revocable);\n    require(!revoked[token]);\n\n    uint256 balance = token.balanceOf(this);\n\n    uint256 unreleased = releasableAmount(token);\n    uint256 refund = balance.sub(unreleased);\n\n    revoked[token] = true;\n\n    token.safeTransfer(owner, refund);\n\n    emit Revoked();\n  }\n\n  /**\n   * @dev Calculates the amount that has already vested but hasn't been released yet.\n   * @param token ERC20 token which is being vested\n   */\n  function releasableAmount(ERC20Basic token) public view returns (uint256) {\n    return vestedAmount(token).sub(released[token]);\n  }\n\n  /**\n   * @dev Calculates the amount that has already vested.\n   * @param token ERC20 token which is being vested\n   */\n  function vestedAmount(ERC20Basic token) public view returns (uint256) {\n    uint256 currentBalance = token.balanceOf(this);\n    uint256 totalBalance = currentBalance.add(released[token]);\n\n    if (block.timestamp < cliff) {\n      return 0;\n    } else if (block.timestamp >= start.add(duration) || revoked[token]) {\n      return totalBalance;\n    } else {\n      return totalBalance.mul(block.timestamp.sub(start)).div(duration);\n    }\n  }\n}\n",
  "sourcePath": "/home/spalladino/Projects/openzeppelin-zos/contracts/token/ERC20/TokenVesting.sol",
  "compiler": {
    "name": "solc",
    "version": "0.4.23+commit.124ca40d.Emscripten.clang"
  },
  "schemaVersion": "2.0.0",
  "updatedAt": "2018-08-27T20:45:00.217Z"
}